{"abi":[{"type":"constructor","inputs":[],"stateMutability":"nonpayable"},{"type":"function","name":"UPGRADE_INTERFACE_VERSION","inputs":[],"outputs":[{"name":"","type":"string","internalType":"string"}],"stateMutability":"view"},{"type":"function","name":"allPlans","inputs":[{"name":"","type":"uint256","internalType":"uint256"}],"outputs":[{"name":"","type":"address","internalType":"address"}],"stateMutability":"view"},{"type":"function","name":"createSubscriptionPlan","inputs":[{"name":"_token","type":"address","internalType":"address"},{"name":"_price","type":"uint256","internalType":"uint256"},{"name":"_duration","type":"uint256","internalType":"uint256"},{"name":"_beneficiary","type":"address","internalType":"address"}],"outputs":[],"stateMutability":"nonpayable"},{"type":"function","name":"creatorToPlans","inputs":[{"name":"","type":"address","internalType":"address"},{"name":"","type":"uint256","internalType":"uint256"}],"outputs":[{"name":"","type":"address","internalType":"address"}],"stateMutability":"view"},{"type":"function","name":"getPlanCount","inputs":[],"outputs":[{"name":"","type":"uint256","internalType":"uint256"}],"stateMutability":"view"},{"type":"function","name":"getPlansByCreator","inputs":[{"name":"_creator","type":"address","internalType":"address"}],"outputs":[{"name":"","type":"address[]","internalType":"address[]"}],"stateMutability":"view"},{"type":"function","name":"initialize","inputs":[],"outputs":[],"stateMutability":"nonpayable"},{"type":"function","name":"owner","inputs":[],"outputs":[{"name":"","type":"address","internalType":"address"}],"stateMutability":"view"},{"type":"function","name":"proxiableUUID","inputs":[],"outputs":[{"name":"","type":"bytes32","internalType":"bytes32"}],"stateMutability":"view"},{"type":"function","name":"renounceOwnership","inputs":[],"outputs":[],"stateMutability":"nonpayable"},{"type":"function","name":"transferOwnership","inputs":[{"name":"newOwner","type":"address","internalType":"address"}],"outputs":[],"stateMutability":"nonpayable"},{"type":"function","name":"upgradeToAndCall","inputs":[{"name":"newImplementation","type":"address","internalType":"address"},{"name":"data","type":"bytes","internalType":"bytes"}],"outputs":[],"stateMutability":"payable"},{"type":"event","name":"Initialized","inputs":[{"name":"version","type":"uint64","indexed":false,"internalType":"uint64"}],"anonymous":false},{"type":"event","name":"OwnershipTransferred","inputs":[{"name":"previousOwner","type":"address","indexed":true,"internalType":"address"},{"name":"newOwner","type":"address","indexed":true,"internalType":"address"}],"anonymous":false},{"type":"event","name":"PlanCreated","inputs":[{"name":"creator","type":"address","indexed":true,"internalType":"address"},{"name":"planAddress","type":"address","indexed":true,"internalType":"address"},{"name":"token","type":"address","indexed":false,"internalType":"address"},{"name":"price","type":"uint256","indexed":false,"internalType":"uint256"},{"name":"duration","type":"uint256","indexed":false,"internalType":"uint256"}],"anonymous":false},{"type":"event","name":"Upgraded","inputs":[{"name":"implementation","type":"address","indexed":true,"internalType":"address"}],"anonymous":false},{"type":"error","name":"AddressEmptyCode","inputs":[{"name":"target","type":"address","internalType":"address"}]},{"type":"error","name":"ERC1967InvalidImplementation","inputs":[{"name":"implementation","type":"address","internalType":"address"}]},{"type":"error","name":"ERC1967NonPayable","inputs":[]},{"type":"error","name":"FailedCall","inputs":[]},{"type":"error","name":"InvalidInitialization","inputs":[]},{"type":"error","name":"NotInitializing","inputs":[]},{"type":"error","name":"OwnableInvalidOwner","inputs":[{"name":"owner","type":"address","internalType":"address"}]},{"type":"error","name":"OwnableUnauthorizedAccount","inputs":[{"name":"account","type":"address","internalType":"address"}]},{"type":"error","name":"UUPSUnauthorizedCallContext","inputs":[]},{"type":"error","name":"UUPSUnsupportedProxiableUUID","inputs":[{"name":"slot","type":"bytes32","internalType":"bytes32"}]}],"bytecode":{"object":"0x60a06040523073ffffffffffffffffffffffffffffffffffffffff1660809073ffffffffffffffffffffffffffffffffffffffff1681525034801562000043575f80fd5b50620000546200005a60201b60201c565b620001e1565b5f6200006b6200015e60201b60201c565b9050805f0160089054906101000a900460ff1615620000b6576040517ff92ee8a900000000000000000000000000000000000000000000000000000000815260040160405180910390fd5b67ffffffffffffffff8016815f015f9054906101000a900467ffffffffffffffff1667ffffffffffffffff16146200015b5767ffffffffffffffff815f015f6101000a81548167ffffffffffffffff021916908367ffffffffffffffff1602179055507fc7f505b2f371ae2175ee4913f4499e1f2633a7b5936321eed1cdaeb6115181d267ffffffffffffffff604051620001529190620001c6565b60405180910390a15b50565b5f80620001706200017960201b60201c565b90508091505090565b5f7ff0c57e16840df040f15088dc2f81fe391c3923bec73e23a9662efc9c229c6a005f1b905090565b5f67ffffffffffffffff82169050919050565b620001c081620001a2565b82525050565b5f602082019050620001db5f830184620001b5565b92915050565b608051612c13620002085f395f8181610a6301528181610ab90152610c830152612c135ff3fe608060405260043610620000b5575f3560e01c80638129fc1c116200006c5780638129fc1c14620001d657806388a1d99114620001ef5780638da5cb5b146200021c578063a1ba6278146200024b578063ad3cb1cc146200028e578063f2fde38b14620002bd57620000b5565b806303b044fe14620000b95780630c63010e14620000fc5780634f1ef286146200013f57806352d1902d146200015f5780636a8f2614146200018e578063715018a614620001bd575b5f80fd5b348015620000c5575f80fd5b50620000e46004803603810190620000de9190620013ad565b620002ea565b604051620000f39190620014a4565b60405180910390f35b34801562000108575f80fd5b50620001276004803603810190620001219190620014fe565b620003b3565b6040516200013691906200153f565b60405180910390f35b6200015d6004803603810190620001579190620016b2565b620003ef565b005b3480156200016b575f80fd5b506200017662000414565b60405162000185919062001730565b60405180910390f35b3480156200019a575f80fd5b50620001a562000447565b604051620001b491906200175c565b60405180910390f35b348015620001c9575f80fd5b50620001d462000453565b005b348015620001e2575f80fd5b50620001ed6200046a565b005b348015620001fb575f80fd5b506200021a600480360381019062000214919062001777565b62000600565b005b34801562000228575f80fd5b50620002336200091e565b6040516200024291906200153f565b60405180910390f35b34801562000257575f80fd5b50620002766004803603810190620002709190620017e6565b62000955565b6040516200028591906200153f565b60405180910390f35b3480156200029a575f80fd5b50620002a56200099d565b604051620002b49190620018af565b60405180910390f35b348015620002c9575f80fd5b50620002e86004803603810190620002e29190620013ad565b620009d6565b005b60605f808373ffffffffffffffffffffffffffffffffffffffff1673ffffffffffffffffffffffffffffffffffffffff1681526020019081526020015f20805480602002602001604051908101604052809291908181526020018280548015620003a757602002820191905f5260205f20905b815f9054906101000a900473ffffffffffffffffffffffffffffffffffffffff1673ffffffffffffffffffffffffffffffffffffffff16815260200190600101908083116200035d575b50505050509050919050565b60018181548110620003c3575f80fd5b905f5260205f20015f915054906101000a900473ffffffffffffffffffffffffffffffffffffffff1681565b620003f962000a61565b620004048262000b4b565b62000410828262000b58565b5050565b5f6200041f62000c81565b7f360894a13ba1a3210667c828492db98dca3e2076cc3735a920a3ca505d382bbc5f1b905090565b5f600180549050905090565b6200045d62000d09565b620004685f62000d99565b565b5f6200047562000e6c565b90505f815f0160089054906101000a900460ff161590505f825f015f9054906101000a900467ffffffffffffffff1690505f808267ffffffffffffffff16148015620004be5750825b90505f60018367ffffffffffffffff16148015620004f257505f3073ffffffffffffffffffffffffffffffffffffffff163b145b90508115801562000501575080155b1562000539576040517ff92ee8a900000000000000000000000000000000000000000000000000000000815260040160405180910390fd5b6001855f015f6101000a81548167ffffffffffffffff021916908367ffffffffffffffff160217905550831562000587576001855f0160086101000a81548160ff0219169083151502179055505b620005923362000e81565b6200059c62000e99565b8315620005f9575f855f0160086101000a81548160ff0219169083151502179055507fc7f505b2f371ae2175ee4913f4499e1f2633a7b5936321eed1cdaeb6115181d26001604051620005f091906200192e565b60405180910390a15b5050505050565b5f73ffffffffffffffffffffffffffffffffffffffff168473ffffffffffffffffffffffffffffffffffffffff160362000671576040517f08c379a0000000000000000000000000000000000000000000000000000000008152600401620006689062001997565b60405180910390fd5b5f73ffffffffffffffffffffffffffffffffffffffff168173ffffffffffffffffffffffffffffffffffffffff1603620006e2576040517f08c379a0000000000000000000000000000000000000000000000000000000008152600401620006d99062001a2b565b60405180910390fd5b5f831162000727576040517f08c379a00000000000000000000000000000000000000000000000000000000081526004016200071e9062001a99565b60405180910390fd5b5f82116200076c576040517f08c379a0000000000000000000000000000000000000000000000000000000008152600401620007639062001b2d565b60405180910390fd5b5f338585858560405162000780906200132d565b6200079095949392919062001b4d565b604051809103905ff080158015620007aa573d5f803e3d5ffd5b5090505f8190505f803373ffffffffffffffffffffffffffffffffffffffff1673ffffffffffffffffffffffffffffffffffffffff1681526020019081526020015f2081908060018154018082558091505060019003905f5260205f20015f9091909190916101000a81548173ffffffffffffffffffffffffffffffffffffffff021916908373ffffffffffffffffffffffffffffffffffffffff160217905550600181908060018154018082558091505060019003905f5260205f20015f9091909190916101000a81548173ffffffffffffffffffffffffffffffffffffffff021916908373ffffffffffffffffffffffffffffffffffffffff1602179055508073ffffffffffffffffffffffffffffffffffffffff163373ffffffffffffffffffffffffffffffffffffffff167f718c2ad4a1ef1faaa69e48b6f729989706f123c71bc6235abd526272fa27190f8888886040516200090e9392919062001ba8565b60405180910390a3505050505050565b5f806200092a62000ea5565b9050805f015f9054906101000a900473ffffffffffffffffffffffffffffffffffffffff1691505090565b5f602052815f5260405f2081815481106200096e575f80fd5b905f5260205f20015f915091509054906101000a900473ffffffffffffffffffffffffffffffffffffffff1681565b6040518060400160405280600581526020017f352e302e3000000000000000000000000000000000000000000000000000000081525081565b620009e062000d09565b5f73ffffffffffffffffffffffffffffffffffffffff168173ffffffffffffffffffffffffffffffffffffffff160362000a53575f6040517f1e4fbdf700000000000000000000000000000000000000000000000000000000815260040162000a4a91906200153f565b60405180910390fd5b62000a5e8162000d99565b50565b7f000000000000000000000000000000000000000000000000000000000000000073ffffffffffffffffffffffffffffffffffffffff163073ffffffffffffffffffffffffffffffffffffffff16148062000b1157507f000000000000000000000000000000000000000000000000000000000000000073ffffffffffffffffffffffffffffffffffffffff1662000af862000ecc565b73ffffffffffffffffffffffffffffffffffffffff1614155b1562000b49576040517fe07c8dba00000000000000000000000000000000000000000000000000000000815260040160405180910390fd5b565b62000b5562000d09565b50565b8173ffffffffffffffffffffffffffffffffffffffff166352d1902d6040518163ffffffff1660e01b8152600401602060405180830381865afa92505050801562000bc357506040513d601f19601f8201168201806040525081019062000bc0919062001c12565b60015b62000c0757816040517f4c9c8ce300000000000000000000000000000000000000000000000000000000815260040162000bfe91906200153f565b60405180910390fd5b7f360894a13ba1a3210667c828492db98dca3e2076cc3735a920a3ca505d382bbc5f1b811462000c7057806040517faa1d49a400000000000000000000000000000000000000000000000000000000815260040162000c67919062001730565b60405180910390fd5b62000c7c838362000f21565b505050565b7f000000000000000000000000000000000000000000000000000000000000000073ffffffffffffffffffffffffffffffffffffffff163073ffffffffffffffffffffffffffffffffffffffff161462000d07576040517fe07c8dba00000000000000000000000000000000000000000000000000000000815260040160405180910390fd5b565b62000d1362000f9b565b73ffffffffffffffffffffffffffffffffffffffff1662000d336200091e565b73ffffffffffffffffffffffffffffffffffffffff161462000d975762000d5962000f9b565b6040517f118cdaa700000000000000000000000000000000000000000000000000000000815260040162000d8e91906200153f565b60405180910390fd5b565b5f62000da462000ea5565b90505f815f015f9054906101000a900473ffffffffffffffffffffffffffffffffffffffff16905082825f015f6101000a81548173ffffffffffffffffffffffffffffffffffffffff021916908373ffffffffffffffffffffffffffffffffffffffff1602179055508273ffffffffffffffffffffffffffffffffffffffff168173ffffffffffffffffffffffffffffffffffffffff167f8be0079c531659141344cd1fd0a4f28419497f9722a3daafe3b4186f6b6457e060405160405180910390a3505050565b5f8062000e7862000fa2565b90508091505090565b62000e8b62000fcb565b62000e96816200100e565b50565b62000ea362000fcb565b565b5f7f9016d09d72d40fdae2fd8ceac6b6234c7706214fd39c1cd1e609a0528c199300905090565b5f62000efa7f360894a13ba1a3210667c828492db98dca3e2076cc3735a920a3ca505d382bbc5f1b62001099565b5f015f9054906101000a900473ffffffffffffffffffffffffffffffffffffffff16905090565b62000f2c82620010a2565b8173ffffffffffffffffffffffffffffffffffffffff167fbc7cd75a20ee27fd9adebab32041f755214dbc6bffa90cc0225b39da2e5c2d3b60405160405180910390a25f8151111562000f8c5762000f85828262001170565b5062000f97565b62000f96620011f6565b5b5050565b5f33905090565b5f7ff0c57e16840df040f15088dc2f81fe391c3923bec73e23a9662efc9c229c6a005f1b905090565b62000fd562001233565b6200100c576040517fd7e6bcf800000000000000000000000000000000000000000000000000000000815260040160405180910390fd5b565b6200101862000fcb565b5f73ffffffffffffffffffffffffffffffffffffffff168173ffffffffffffffffffffffffffffffffffffffff16036200108b575f6040517f1e4fbdf70000000000000000000000000000000000000000000000000000000081526004016200108291906200153f565b60405180910390fd5b620010968162000d99565b50565b5f819050919050565b5f8173ffffffffffffffffffffffffffffffffffffffff163b036200110057806040517f4c9c8ce3000000000000000000000000000000000000000000000000000000008152600401620010f791906200153f565b60405180910390fd5b806200112e7f360894a13ba1a3210667c828492db98dca3e2076cc3735a920a3ca505d382bbc5f1b62001099565b5f015f6101000a81548173ffffffffffffffffffffffffffffffffffffffff021916908373ffffffffffffffffffffffffffffffffffffffff16021790555050565b60605f808473ffffffffffffffffffffffffffffffffffffffff16846040516200119b919062001c8c565b5f60405180830381855af49150503d805f8114620011d5576040519150601f19603f3d011682016040523d82523d5f602084013e620011da565b606091505b5091509150620011ec85838362001253565b9250505092915050565b5f34111562001231576040517fb398979f00000000000000000000000000000000000000000000000000000000815260040160405180910390fd5b565b5f6200123e62000e6c565b5f0160089054906101000a900460ff16905090565b6060826200126c576200126682620012e9565b620012e1565b5f82511480156200129357505f8473ffffffffffffffffffffffffffffffffffffffff163b145b15620012d857836040517f9996b315000000000000000000000000000000000000000000000000000000008152600401620012cf91906200153f565b60405180910390fd5b819050620012e2565b5b9392505050565b5f81511115620012fb57805160208201fd5b6040517fd6bda27500000000000000000000000000000000000000000000000000000000815260040160405180910390fd5b610f398062001ca583390190565b5f604051905090565b5f80fd5b5f80fd5b5f73ffffffffffffffffffffffffffffffffffffffff82169050919050565b5f62001377826200134c565b9050919050565b62001389816200136b565b811462001394575f80fd5b50565b5f81359050620013a7816200137e565b92915050565b5f60208284031215620013c557620013c462001344565b5b5f620013d48482850162001397565b91505092915050565b5f81519050919050565b5f82825260208201905092915050565b5f819050602082019050919050565b62001411816200136b565b82525050565b5f62001424838362001406565b60208301905092915050565b5f602082019050919050565b5f6200144882620013dd565b620014548185620013e7565b93506200146183620013f7565b805f5b83811015620014975781516200147b888262001417565b9750620014888362001430565b92505060018101905062001464565b5085935050505092915050565b5f6020820190508181035f830152620014be81846200143c565b905092915050565b5f819050919050565b620014da81620014c6565b8114620014e5575f80fd5b50565b5f81359050620014f881620014cf565b92915050565b5f6020828403121562001516576200151562001344565b5b5f6200152584828501620014e8565b91505092915050565b62001539816200136b565b82525050565b5f602082019050620015545f8301846200152e565b92915050565b5f80fd5b5f80fd5b5f601f19601f8301169050919050565b7f4e487b71000000000000000000000000000000000000000000000000000000005f52604160045260245ffd5b620015aa8262001562565b810181811067ffffffffffffffff82111715620015cc57620015cb62001572565b5b80604052505050565b5f620015e06200133b565b9050620015ee82826200159f565b919050565b5f67ffffffffffffffff82111562001610576200160f62001572565b5b6200161b8262001562565b9050602081019050919050565b828183375f83830152505050565b5f6200164c6200164684620015f3565b620015d5565b9050828152602081018484840111156200166b576200166a6200155e565b5b6200167884828562001628565b509392505050565b5f82601f8301126200169757620016966200155a565b5b8135620016a984826020860162001636565b91505092915050565b5f8060408385031215620016cb57620016ca62001344565b5b5f620016da8582860162001397565b925050602083013567ffffffffffffffff811115620016fe57620016fd62001348565b5b6200170c8582860162001680565b9150509250929050565b5f819050919050565b6200172a8162001716565b82525050565b5f602082019050620017455f8301846200171f565b92915050565b6200175681620014c6565b82525050565b5f602082019050620017715f8301846200174b565b92915050565b5f805f806080858703121562001792576200179162001344565b5b5f620017a18782880162001397565b9450506020620017b487828801620014e8565b9350506040620017c787828801620014e8565b9250506060620017da8782880162001397565b91505092959194509250565b5f8060408385031215620017ff57620017fe62001344565b5b5f6200180e8582860162001397565b92505060206200182185828601620014e8565b9150509250929050565b5f81519050919050565b5f82825260208201905092915050565b5f5b838110156200186457808201518184015260208101905062001847565b5f8484015250505050565b5f6200187b826200182b565b62001887818562001835565b93506200189981856020860162001845565b620018a48162001562565b840191505092915050565b5f6020820190508181035f830152620018c981846200186f565b905092915050565b5f819050919050565b5f67ffffffffffffffff82169050919050565b5f819050919050565b5f62001916620019106200190a84620018d1565b620018ed565b620018da565b9050919050565b6200192881620018f6565b82525050565b5f602082019050620019435f8301846200191d565b92915050565b7f546f6b656e2063616e6e6f74206265207a65726f2061646472657373000000005f82015250565b5f6200197f601c8362001835565b91506200198c8262001949565b602082019050919050565b5f6020820190508181035f830152620019b08162001971565b9050919050565b7f42656e65666963696172792063616e6e6f74206265207a65726f2061646472655f8201527f7373000000000000000000000000000000000000000000000000000000000000602082015250565b5f62001a1360228362001835565b915062001a2082620019b7565b604082019050919050565b5f6020820190508181035f83015262001a448162001a05565b9050919050565b7f5072696365206d7573742062652067726561746572207468616e207a65726f005f82015250565b5f62001a81601f8362001835565b915062001a8e8262001a4b565b602082019050919050565b5f6020820190508181035f83015262001ab28162001a73565b9050919050565b7f4475726174696f6e206d7573742062652067726561746572207468616e207a655f8201527f726f000000000000000000000000000000000000000000000000000000000000602082015250565b5f62001b1560228362001835565b915062001b228262001ab9565b604082019050919050565b5f6020820190508181035f83015262001b468162001b07565b9050919050565b5f60a08201905062001b625f8301886200152e565b62001b7160208301876200152e565b62001b8060408301866200174b565b62001b8f60608301856200174b565b62001b9e60808301846200152e565b9695505050505050565b5f60608201905062001bbd5f8301866200152e565b62001bcc60208301856200174b565b62001bdb60408301846200174b565b949350505050565b62001bee8162001716565b811462001bf9575f80fd5b50565b5f8151905062001c0c8162001be3565b92915050565b5f6020828403121562001c2a5762001c2962001344565b5b5f62001c398482850162001bfc565b91505092915050565b5f81519050919050565b5f81905092915050565b5f62001c628262001c42565b62001c6e818562001c4c565b935062001c8081856020860162001845565b80840191505092915050565b5f62001c99828462001c56565b91508190509291505056fe61012060405234801562000011575f80fd5b5060405162000f3938038062000f39833981810160405281019062000037919062000193565b60015f819055508473ffffffffffffffffffffffffffffffffffffffff1660808173ffffffffffffffffffffffffffffffffffffffff16815250508373ffffffffffffffffffffffffffffffffffffffff1660a08173ffffffffffffffffffffffffffffffffffffffff16815250508260c081815250508160e081815250508073ffffffffffffffffffffffffffffffffffffffff166101008173ffffffffffffffffffffffffffffffffffffffff1681525050505050505062000217565b5f80fd5b5f73ffffffffffffffffffffffffffffffffffffffff82169050919050565b5f6200012582620000fa565b9050919050565b620001378162000119565b811462000142575f80fd5b50565b5f8151905062000155816200012c565b92915050565b5f819050919050565b6200016f816200015b565b81146200017a575f80fd5b50565b5f815190506200018d8162000164565b92915050565b5f805f805f60a08688031215620001af57620001ae620000f6565b5b5f620001be8882890162000145565b9550506020620001d18882890162000145565b9450506040620001e4888289016200017d565b9350506060620001f7888289016200017d565b92505060806200020a8882890162000145565b9150509295509295909350565b60805160a05160c05160e05161010051610cb3620002865f395f818161027401526103ec01525f8181610250015281816104e3015261051701525f81816102bc01528181610385015261040d01525f8181610298015281816102e9015261042e01525f6101a20152610cb35ff3fe608060405234801561000f575f80fd5b5060043610610091575f3560e01c806382bfefc81161006457806382bfefc81461011f5780638d859f3e1461013d5780638f449a051461015b578063ea8a1af014610165578063f046395a1461016f57610091565b8063117803e31461009557806314401329146100b35780631be05289146100e35780632f99c6cc14610101575b5f80fd5b61009d6101a0565b6040516100aa919061091b565b60405180910390f35b6100cd60048036038101906100c89190610962565b6101c4565b6040516100da91906109a7565b60405180910390f35b6100eb61024e565b6040516100f891906109d8565b60405180910390f35b610109610272565b604051610116919061091b565b60405180910390f35b610127610296565b6040516101349190610a4c565b60405180910390f35b6101456102ba565b60405161015291906109d8565b60405180910390f35b6101636102de565b005b61016d61061e565b005b61018960048036038101906101849190610962565b610746565b604051610197929190610a65565b60405180910390f35b7f000000000000000000000000000000000000000000000000000000000000000081565b5f8060015f8473ffffffffffffffffffffffffffffffffffffffff1673ffffffffffffffffffffffffffffffffffffffff1681526020019081526020015f206040518060400160405290815f8201548152602001600182015f9054906101000a900460ff161515151581525050905080602001518015610246575042815f0151115b915050919050565b7f000000000000000000000000000000000000000000000000000000000000000081565b7f000000000000000000000000000000000000000000000000000000000000000081565b7f000000000000000000000000000000000000000000000000000000000000000081565b7f000000000000000000000000000000000000000000000000000000000000000081565b6102e6610772565b5f7f000000000000000000000000000000000000000000000000000000000000000073ffffffffffffffffffffffffffffffffffffffff1663dd62ed3e33306040518363ffffffff1660e01b8152600401610342929190610a8c565b602060405180830381865afa15801561035d573d5f803e3d5ffd5b505050506040513d601f19601f820116820180604052508101906103819190610add565b90507f00000000000000000000000000000000000000000000000000000000000000008110156103e6576040517f08c379a00000000000000000000000000000000000000000000000000000000081526004016103dd90610b62565b60405180910390fd5b610473337f00000000000000000000000000000000000000000000000000000000000000007f00000000000000000000000000000000000000000000000000000000000000007f000000000000000000000000000000000000000000000000000000000000000073ffffffffffffffffffffffffffffffffffffffff166107b6909392919063ffffffff16565b5f60015f3373ffffffffffffffffffffffffffffffffffffffff1673ffffffffffffffffffffffffffffffffffffffff1681526020019081526020015f2090505f80825f01541180156104d45750816001015f9054906101000a900460ff16155b90505f825f01544211610515577f0000000000000000000000000000000000000000000000000000000000000000835f01546105109190610bad565b610542565b7f0000000000000000000000000000000000000000000000000000000000000000426105419190610bad565b5b905080835f01819055506001836001015f6101000a81548160ff02191690831515021790555081156105c1573373ffffffffffffffffffffffffffffffffffffffff167f5b6bc69fe6bce3550786f41abca37faf215624042edf8356aa471b0fcf02480b826040516105b491906109d8565b60405180910390a2610610565b3373ffffffffffffffffffffffffffffffffffffffff167f4b90d6788928d63c1821907a6a8b95f40d26562d8fe41b105f7489db9966dfcb8260405161060791906109d8565b60405180910390a25b5050505061061c610838565b565b60015f3373ffffffffffffffffffffffffffffffffffffffff1673ffffffffffffffffffffffffffffffffffffffff1681526020019081526020015f206001015f9054906101000a900460ff166106aa576040517f08c379a00000000000000000000000000000000000000000000000000000000081526004016106a190610c2a565b60405180910390fd5b5f60015f3373ffffffffffffffffffffffffffffffffffffffff1673ffffffffffffffffffffffffffffffffffffffff1681526020019081526020015f206001015f6101000a81548160ff0219169083151502179055503373ffffffffffffffffffffffffffffffffffffffff167fcd71257f2998474633e94cfffa045014068f6218ffdca256b6f4aa9d5f15fb8960405160405180910390a2565b6001602052805f5260405f205f91509050805f015490806001015f9054906101000a900460ff16905082565b60025f54036107ad576040517f3ee5aeb500000000000000000000000000000000000000000000000000000000815260040160405180910390fd5b60025f81905550565b610832848573ffffffffffffffffffffffffffffffffffffffff166323b872dd8686866040516024016107eb93929190610c48565b604051602081830303815290604052915060e01b6020820180517bffffffffffffffffffffffffffffffffffffffffffffffffffffffff8381831617835250505050610841565b50505050565b60015f81905550565b5f8060205f8451602086015f885af180610860576040513d5f823e3d81fd5b3d92505f519150505f8214610879576001811415610894565b5f8473ffffffffffffffffffffffffffffffffffffffff163b145b156108d657836040517f5274afe70000000000000000000000000000000000000000000000000000000081526004016108cd919061091b565b60405180910390fd5b50505050565b5f73ffffffffffffffffffffffffffffffffffffffff82169050919050565b5f610905826108dc565b9050919050565b610915816108fb565b82525050565b5f60208201905061092e5f83018461090c565b92915050565b5f80fd5b610941816108fb565b811461094b575f80fd5b50565b5f8135905061095c81610938565b92915050565b5f6020828403121561097757610976610934565b5b5f6109848482850161094e565b91505092915050565b5f8115159050919050565b6109a18161098d565b82525050565b5f6020820190506109ba5f830184610998565b92915050565b5f819050919050565b6109d2816109c0565b82525050565b5f6020820190506109eb5f8301846109c9565b92915050565b5f819050919050565b5f610a14610a0f610a0a846108dc565b6109f1565b6108dc565b9050919050565b5f610a25826109fa565b9050919050565b5f610a3682610a1b565b9050919050565b610a4681610a2c565b82525050565b5f602082019050610a5f5f830184610a3d565b92915050565b5f604082019050610a785f8301856109c9565b610a856020830184610998565b9392505050565b5f604082019050610a9f5f83018561090c565b610aac602083018461090c565b9392505050565b610abc816109c0565b8114610ac6575f80fd5b50565b5f81519050610ad781610ab3565b92915050565b5f60208284031215610af257610af1610934565b5b5f610aff84828501610ac9565b91505092915050565b5f82825260208201905092915050565b7f436865636b20746f6b656e20616c6c6f77616e636500000000000000000000005f82015250565b5f610b4c601583610b08565b9150610b5782610b18565b602082019050919050565b5f6020820190508181035f830152610b7981610b40565b9050919050565b7f4e487b71000000000000000000000000000000000000000000000000000000005f52601160045260245ffd5b5f610bb7826109c0565b9150610bc2836109c0565b9250828201905080821115610bda57610bd9610b80565b5b92915050565b7f4e6f7420737562736372696265640000000000000000000000000000000000005f82015250565b5f610c14600e83610b08565b9150610c1f82610be0565b602082019050919050565b5f6020820190508181035f830152610c4181610c08565b9050919050565b5f606082019050610c5b5f83018661090c565b610c68602083018561090c565b610c7560408301846109c9565b94935050505056fea2646970667358221220f5716f104640754aaef309d2e818ab19d45b48dc823b1a1ce66f5579a822e14564736f6c63430008160033a26469706673582212201807e0230b0541fcdeea3ae5e1a70aa9881e3f8be35e04770ae21e44c536351c64736f6c63430008160033","linkReferences":{}},"methodIdentifiers":{"UPGRADE_INTERFACE_VERSION()":"ad3cb1cc","allPlans(uint256)":"0c63010e","createSubscriptionPlan(address,uint256,uint256,address)":"88a1d991","creatorToPlans(address,uint256)":"a1ba6278","getPlanCount()":"6a8f2614","getPlansByCreator(address)":"03b044fe","initialize()":"8129fc1c","owner()":"8da5cb5b","proxiableUUID()":"52d1902d","renounceOwnership()":"715018a6","transferOwnership(address)":"f2fde38b","upgradeToAndCall(address,bytes)":"4f1ef286"},"id":41}