{"abi":[{"type":"constructor","inputs":[{"name":"_owner","type":"address","internalType":"address"},{"name":"_token","type":"address","internalType":"address"},{"name":"_price","type":"uint256","internalType":"uint256"},{"name":"_duration","type":"uint256","internalType":"uint256"},{"name":"_beneficiary","type":"address","internalType":"address"}],"stateMutability":"nonpayable"},{"type":"function","name":"BENEFICIARY","inputs":[],"outputs":[{"name":"","type":"address","internalType":"address"}],"stateMutability":"view"},{"type":"function","name":"DURATION","inputs":[],"outputs":[{"name":"","type":"uint256","internalType":"uint256"}],"stateMutability":"view"},{"type":"function","name":"OWNER","inputs":[],"outputs":[{"name":"","type":"address","internalType":"address"}],"stateMutability":"view"},{"type":"function","name":"PRICE","inputs":[],"outputs":[{"name":"","type":"uint256","internalType":"uint256"}],"stateMutability":"view"},{"type":"function","name":"TOKEN","inputs":[],"outputs":[{"name":"","type":"address","internalType":"contract IERC20"}],"stateMutability":"view"},{"type":"function","name":"cancel","inputs":[],"outputs":[],"stateMutability":"nonpayable"},{"type":"function","name":"isSubscriptionActive","inputs":[{"name":"_user","type":"address","internalType":"address"}],"outputs":[{"name":"","type":"bool","internalType":"bool"}],"stateMutability":"view"},{"type":"function","name":"subscribe","inputs":[],"outputs":[],"stateMutability":"nonpayable"},{"type":"function","name":"subscriptions","inputs":[{"name":"","type":"address","internalType":"address"}],"outputs":[{"name":"expiry","type":"uint256","internalType":"uint256"},{"name":"active","type":"bool","internalType":"bool"}],"stateMutability":"view"},{"type":"event","name":"Subscribed","inputs":[{"name":"user","type":"address","indexed":true,"internalType":"address"},{"name":"expiry","type":"uint256","indexed":false,"internalType":"uint256"}],"anonymous":false},{"type":"event","name":"SubscriptionPaused","inputs":[{"name":"user","type":"address","indexed":true,"internalType":"address"}],"anonymous":false},{"type":"event","name":"SubscriptionResumed","inputs":[{"name":"user","type":"address","indexed":true,"internalType":"address"},{"name":"newExpiry","type":"uint256","indexed":false,"internalType":"uint256"}],"anonymous":false},{"type":"error","name":"ReentrancyGuardReentrantCall","inputs":[]},{"type":"error","name":"SafeERC20FailedOperation","inputs":[{"name":"token","type":"address","internalType":"address"}]}],"bytecode":{"object":"0x61012060405234801562000011575f80fd5b5060405162000f3938038062000f39833981810160405281019062000037919062000193565b60015f819055508473ffffffffffffffffffffffffffffffffffffffff1660808173ffffffffffffffffffffffffffffffffffffffff16815250508373ffffffffffffffffffffffffffffffffffffffff1660a08173ffffffffffffffffffffffffffffffffffffffff16815250508260c081815250508160e081815250508073ffffffffffffffffffffffffffffffffffffffff166101008173ffffffffffffffffffffffffffffffffffffffff1681525050505050505062000217565b5f80fd5b5f73ffffffffffffffffffffffffffffffffffffffff82169050919050565b5f6200012582620000fa565b9050919050565b620001378162000119565b811462000142575f80fd5b50565b5f8151905062000155816200012c565b92915050565b5f819050919050565b6200016f816200015b565b81146200017a575f80fd5b50565b5f815190506200018d8162000164565b92915050565b5f805f805f60a08688031215620001af57620001ae620000f6565b5b5f620001be8882890162000145565b9550506020620001d18882890162000145565b9450506040620001e4888289016200017d565b9350506060620001f7888289016200017d565b92505060806200020a8882890162000145565b9150509295509295909350565b60805160a05160c05160e05161010051610cb3620002865f395f818161027401526103ec01525f8181610250015281816104e3015261051701525f81816102bc01528181610385015261040d01525f8181610298015281816102e9015261042e01525f6101a20152610cb35ff3fe608060405234801561000f575f80fd5b5060043610610091575f3560e01c806382bfefc81161006457806382bfefc81461011f5780638d859f3e1461013d5780638f449a051461015b578063ea8a1af014610165578063f046395a1461016f57610091565b8063117803e31461009557806314401329146100b35780631be05289146100e35780632f99c6cc14610101575b5f80fd5b61009d6101a0565b6040516100aa919061091b565b60405180910390f35b6100cd60048036038101906100c89190610962565b6101c4565b6040516100da91906109a7565b60405180910390f35b6100eb61024e565b6040516100f891906109d8565b60405180910390f35b610109610272565b604051610116919061091b565b60405180910390f35b610127610296565b6040516101349190610a4c565b60405180910390f35b6101456102ba565b60405161015291906109d8565b60405180910390f35b6101636102de565b005b61016d61061e565b005b61018960048036038101906101849190610962565b610746565b604051610197929190610a65565b60405180910390f35b7f000000000000000000000000000000000000000000000000000000000000000081565b5f8060015f8473ffffffffffffffffffffffffffffffffffffffff1673ffffffffffffffffffffffffffffffffffffffff1681526020019081526020015f206040518060400160405290815f8201548152602001600182015f9054906101000a900460ff161515151581525050905080602001518015610246575042815f0151115b915050919050565b7f000000000000000000000000000000000000000000000000000000000000000081565b7f000000000000000000000000000000000000000000000000000000000000000081565b7f000000000000000000000000000000000000000000000000000000000000000081565b7f000000000000000000000000000000000000000000000000000000000000000081565b6102e6610772565b5f7f000000000000000000000000000000000000000000000000000000000000000073ffffffffffffffffffffffffffffffffffffffff1663dd62ed3e33306040518363ffffffff1660e01b8152600401610342929190610a8c565b602060405180830381865afa15801561035d573d5f803e3d5ffd5b505050506040513d601f19601f820116820180604052508101906103819190610add565b90507f00000000000000000000000000000000000000000000000000000000000000008110156103e6576040517f08c379a00000000000000000000000000000000000000000000000000000000081526004016103dd90610b62565b60405180910390fd5b610473337f00000000000000000000000000000000000000000000000000000000000000007f00000000000000000000000000000000000000000000000000000000000000007f000000000000000000000000000000000000000000000000000000000000000073ffffffffffffffffffffffffffffffffffffffff166107b6909392919063ffffffff16565b5f60015f3373ffffffffffffffffffffffffffffffffffffffff1673ffffffffffffffffffffffffffffffffffffffff1681526020019081526020015f2090505f80825f01541180156104d45750816001015f9054906101000a900460ff16155b90505f825f01544211610515577f0000000000000000000000000000000000000000000000000000000000000000835f01546105109190610bad565b610542565b7f0000000000000000000000000000000000000000000000000000000000000000426105419190610bad565b5b905080835f01819055506001836001015f6101000a81548160ff02191690831515021790555081156105c1573373ffffffffffffffffffffffffffffffffffffffff167f5b6bc69fe6bce3550786f41abca37faf215624042edf8356aa471b0fcf02480b826040516105b491906109d8565b60405180910390a2610610565b3373ffffffffffffffffffffffffffffffffffffffff167f4b90d6788928d63c1821907a6a8b95f40d26562d8fe41b105f7489db9966dfcb8260405161060791906109d8565b60405180910390a25b5050505061061c610838565b565b60015f3373ffffffffffffffffffffffffffffffffffffffff1673ffffffffffffffffffffffffffffffffffffffff1681526020019081526020015f206001015f9054906101000a900460ff166106aa576040517f08c379a00000000000000000000000000000000000000000000000000000000081526004016106a190610c2a565b60405180910390fd5b5f60015f3373ffffffffffffffffffffffffffffffffffffffff1673ffffffffffffffffffffffffffffffffffffffff1681526020019081526020015f206001015f6101000a81548160ff0219169083151502179055503373ffffffffffffffffffffffffffffffffffffffff167fcd71257f2998474633e94cfffa045014068f6218ffdca256b6f4aa9d5f15fb8960405160405180910390a2565b6001602052805f5260405f205f91509050805f015490806001015f9054906101000a900460ff16905082565b60025f54036107ad576040517f3ee5aeb500000000000000000000000000000000000000000000000000000000815260040160405180910390fd5b60025f81905550565b610832848573ffffffffffffffffffffffffffffffffffffffff166323b872dd8686866040516024016107eb93929190610c48565b604051602081830303815290604052915060e01b6020820180517bffffffffffffffffffffffffffffffffffffffffffffffffffffffff8381831617835250505050610841565b50505050565b60015f81905550565b5f8060205f8451602086015f885af180610860576040513d5f823e3d81fd5b3d92505f519150505f8214610879576001811415610894565b5f8473ffffffffffffffffffffffffffffffffffffffff163b145b156108d657836040517f5274afe70000000000000000000000000000000000000000000000000000000081526004016108cd919061091b565b60405180910390fd5b50505050565b5f73ffffffffffffffffffffffffffffffffffffffff82169050919050565b5f610905826108dc565b9050919050565b610915816108fb565b82525050565b5f60208201905061092e5f83018461090c565b92915050565b5f80fd5b610941816108fb565b811461094b575f80fd5b50565b5f8135905061095c81610938565b92915050565b5f6020828403121561097757610976610934565b5b5f6109848482850161094e565b91505092915050565b5f8115159050919050565b6109a18161098d565b82525050565b5f6020820190506109ba5f830184610998565b92915050565b5f819050919050565b6109d2816109c0565b82525050565b5f6020820190506109eb5f8301846109c9565b92915050565b5f819050919050565b5f610a14610a0f610a0a846108dc565b6109f1565b6108dc565b9050919050565b5f610a25826109fa565b9050919050565b5f610a3682610a1b565b9050919050565b610a4681610a2c565b82525050565b5f602082019050610a5f5f830184610a3d565b92915050565b5f604082019050610a785f8301856109c9565b610a856020830184610998565b9392505050565b5f604082019050610a9f5f83018561090c565b610aac602083018461090c565b9392505050565b610abc816109c0565b8114610ac6575f80fd5b50565b5f81519050610ad781610ab3565b92915050565b5f60208284031215610af257610af1610934565b5b5f610aff84828501610ac9565b91505092915050565b5f82825260208201905092915050565b7f436865636b20746f6b656e20616c6c6f77616e636500000000000000000000005f82015250565b5f610b4c601583610b08565b9150610b5782610b18565b602082019050919050565b5f6020820190508181035f830152610b7981610b40565b9050919050565b7f4e487b71000000000000000000000000000000000000000000000000000000005f52601160045260245ffd5b5f610bb7826109c0565b9150610bc2836109c0565b9250828201905080821115610bda57610bd9610b80565b5b92915050565b7f4e6f7420737562736372696265640000000000000000000000000000000000005f82015250565b5f610c14600e83610b08565b9150610c1f82610be0565b602082019050919050565b5f6020820190508181035f830152610c4181610c08565b9050919050565b5f606082019050610c5b5f83018661090c565b610c68602083018561090c565b610c7560408301846109c9565b94935050505056fea2646970667358221220f5716f104640754aaef309d2e818ab19d45b48dc823b1a1ce66f5579a822e14564736f6c63430008160033","linkReferences":{}},"methodIdentifiers":{"BENEFICIARY()":"2f99c6cc","DURATION()":"1be05289","OWNER()":"117803e3","PRICE()":"8d859f3e","TOKEN()":"82bfefc8","cancel()":"ea8a1af0","isSubscriptionActive(address)":"14401329","subscribe()":"8f449a05","subscriptions(address)":"f046395a"},"id":42}